S02600004F62635F6F66506F7765724F6263576974686F7574496E746572727570742E73726563D4
S113000045C000004BC0000049C0000047C00000CC
S113001045C0000043C0000041C000003FC00000D4
S11300203DC000003BC0000039C0000037C00000E4
S113003035C0000033C0000031C000002FC00000F4
S11300402DC000002BC0000029C0000027C0000004
S113005025C0000023C0000021C000001FC0000014
S11300601DC000001BC0000019C0000017C0000024
S113007015C0000013C0000011C000000FC0000034
S11300800DC000000BC0000009C0000011241FBEF9
S1130090CFEFD0E1DEBFCDBF80D0C0C0B1CF1092D2
S11300A07100109274008CE0809370000895E4E76E
S11300B0F0E094EAA1E7B0E0908380818823ECF734
S11300C08C91887F8830C1F7089584EA8093740006
S11300D0E4E7F0E080818823ECF7E1E7F0E0808159
S11300E0887F8031E1F70895CF93DF93C3E7D0E0B1
S11300F0E4E7F0E024E8A1E7B0E08883208390817E
S11301009923ECF79C91987F9831B9F7DF91CF91BF
S11301100895CF93DF93C3E7D0E0E4E7F0E024E869
S1130120A1E7B0E08883208390819923ECF79C9128
S1130130987F9034B9F7DF91CF910895CF93DF93EF
S1130140C3E7D0E0E4E7F0E024E8A1E7B0E0888387
S1130150208390819923ECF79C91987F9832B9F78A
S1130160DF91CF91089584E880937400E4E7F0E090
S113017080818823ECF7E1E7F0E08081887F88358F
S1130180E1F780917300089584E980937400E4E7B3
S1130190F0E0808184FFFDCF08952BD080DF80EFD5
S11301A08ABB00E110E4D0EF82DF80E29DDF85E3CB
S11301B0C5DF2FEF80E792E0215080409040E1F7C7
S11301C000C0000082DF0BBB81E2A3DF80E28BBBB7
S11301D0CADFC82F1BBB2FEF80E792E0215080407D
S11301E09040E1F700C00000CFDFDBBB8C2F12D0C2
S11301F0DBCF1BB81AB8E5E9F0E01082599A8AB14E
S113020088618AB980818E60808387E689B910927B
S1130210900008955D9BFECF8CB90895F894FFCFAC
S9030000FC
