:100000000C942A000C9434000C9434000C943400AA
:100010000C9434000C9434000C9434000C94340090
:100020000C9434000C9434000C9434000C94340080
:100030000C9434000C9434000C9434000C94340070
:100040000C9434000C9434000C9434000C94340060
:100050000C94340011241FBECFE5D8E0DEBFCDBF25
:100060000E9465000C948D000C94000080E282B91F
:1000700084E486BF089524EC922F96BF06B607FE4F
:10008000FDCF81B1887F8036C1F726BF06B607FE57
:10009000FDCF81B1887F803881F783B1089524EC4A
:1000A00034E826BF06B607FEFDCF91B1987F983A97
:1000B00011F0903BB1F783B936BF06B607FEFDCF0E
:1000C00091B1987F903C69F708950E947B000E944F
:1000D00036000E943B00C82F0E9489002FEF80E766
:1000E00092E0215080409040E1F700C000008C2F4A
:1000F0000E944F00EECF1BB81AB810BC599A8AB1B3
:1001000088618AB980B58E6080BD87E689B910BCE8
:0E01100008955D9BFECF8CB90895F894FFCF43
:00000001FF
